{
  "_format": "hh-sol-artifact-1",
  "contractName": "CredLedger",
  "sourceName": "contracts/CredLedger.sol",
  "abi": [
    {
      "anonymous": false,
      "inputs": [
        {
          "indexed": true,
          "internalType": "string",
          "name": "hash",
          "type": "string"
        },
        {
          "indexed": false,
          "internalType": "string",
          "name": "recipient",
          "type": "string"
        },
        {
          "indexed": false,
          "internalType": "string",
          "name": "issuer",
          "type": "string"
        }
      ],
      "name": "CertificateIssued",
      "type": "event"
    },
    {
      "inputs": [
        {
          "internalType": "string",
          "name": "_hash",
          "type": "string"
        },
        {
          "internalType": "string",
          "name": "_recipient",
          "type": "string"
        },
        {
          "internalType": "string",
          "name": "_issuer",
          "type": "string"
        },
        {
          "internalType": "string",
          "name": "_eventName",
          "type": "string"
        },
        {
          "internalType": "string",
          "name": "_date",
          "type": "string"
        },
        {
          "internalType": "string",
          "name": "_ipfsUrl",
          "type": "string"
        }
      ],
      "name": "issueCertificate",
      "outputs": [],
      "stateMutability": "nonpayable",
      "type": "function"
    },
    {
      "inputs": [
        {
          "internalType": "string",
          "name": "_hash",
          "type": "string"
        }
      ],
      "name": "verifyCertificate",
      "outputs": [
        {
          "internalType": "string",
          "name": "hash",
          "type": "string"
        },
        {
          "internalType": "string",
          "name": "recipient",
          "type": "string"
        },
        {
          "internalType": "string",
          "name": "issuer",
          "type": "string"
        },
        {
          "internalType": "string",
          "name": "eventName",
          "type": "string"
        },
        {
          "internalType": "string",
          "name": "date",
          "type": "string"
        },
        {
          "internalType": "string",
          "name": "ipfsUrl",
          "type": "string"
        },
        {
          "internalType": "bool",
          "name": "exists",
          "type": "bool"
        }
      ],
      "stateMutability": "view",
      "type": "function"
    }
  ],
  "bytecode": "0x608060405234801561001057600080fd5b50610e68806100206000396000f3fe608060405234801561001057600080fd5b50600436106100365760003560e01c80638b23d8751461003b57806394973c9714610071575b600080fd5b610055600480360381019061005091906107a3565b61008d565b6040516100689796959493929190610886565b60405180910390f35b61008b6004803603810190610086919061091f565b610488565b005b6060806060806060806000806000896040516100a99190610a90565b90815260200160405180910390206040518060e00160405290816000820180546100d290610ad6565b80601f01602080910402602001604051908101604052809291908181526020018280546100fe90610ad6565b801561014b5780601f106101205761010080835404028352916020019161014b565b820191906000526020600020905b81548152906001019060200180831161012e57829003601f168201915b5050505050815260200160018201805461016490610ad6565b80601f016020809104026020016040519081016040528092919081815260200182805461019090610ad6565b80156101dd5780601f106101b2576101008083540402835291602001916101dd565b820191906000526020600020905b8154815290600101906020018083116101c057829003601f168201915b505050505081526020016002820180546101f690610ad6565b80601f016020809104026020016040519081016040528092919081815260200182805461022290610ad6565b801561026f5780601f106102445761010080835404028352916020019161026f565b820191906000526020600020905b81548152906001019060200180831161025257829003601f168201915b5050505050815260200160038201805461028890610ad6565b80601f01602080910402602001604051908101604052809291908181526020018280546102b490610ad6565b80156103015780601f106102d657610100808354040283529160200191610301565b820191906000526020600020905b8154815290600101906020018083116102e457829003601f168201915b5050505050815260200160048201805461031a90610ad6565b80601f016020809104026020016040519081016040528092919081815260200182805461034690610ad6565b80156103935780601f1061036857610100808354040283529160200191610393565b820191906000526020600020905b81548152906001019060200180831161037657829003601f168201915b505050505081526020016005820180546103ac90610ad6565b80601f01602080910402602001604051908101604052809291908181526020018280546103d890610ad6565b80156104255780601f106103fa57610100808354040283529160200191610425565b820191906000526020600020905b81548152906001019060200180831161040857829003601f168201915b505050505081526020016006820160009054906101000a900460ff1615151515815250509050806000015181602001518260400151836060015184608001518560a001518660c00151975097509750975097509750975050919395979092949650565b6000866040516104989190610a90565b908152602001604051809103902060060160009054906101000a900460ff16156104f7576040517f08c379a00000000000000000000000000000000000000000000000000000000081526004016104ee90610b53565b60405180910390fd5b6040518060e001604052808781526020018681526020018581526020018481526020018381526020018281526020016001151581525060008760405161053d9190610a90565b908152602001604051809103902060008201518160000190816105609190610d29565b5060208201518160010190816105769190610d29565b50604082015181600201908161058c9190610d29565b5060608201518160030190816105a29190610d29565b5060808201518160040190816105b89190610d29565b5060a08201518160050190816105ce9190610d29565b5060c08201518160060160006101000a81548160ff021916908315150217905550905050856040516106009190610a90565b60405180910390207fc9aed1c64acf67836d70d23befa83b398ae1cc3d4dfae56bfe219d38128dd2438686604051610639929190610dfb565b60405180910390a2505050505050565b6000604051905090565b600080fd5b600080fd5b600080fd5b600080fd5b6000601f19601f8301169050919050565b7f4e487b7100000000000000000000000000000000000000000000000000000000600052604160045260246000fd5b6106b082610667565b810181811067ffffffffffffffff821117156106cf576106ce610678565b5b80604052505050565b60006106e2610649565b90506106ee82826106a7565b919050565b600067ffffffffffffffff82111561070e5761070d610678565b5b61071782610667565b9050602081019050919050565b82818337600083830152505050565b6000610746610741846106f3565b6106d8565b90508281526020810184848401111561076257610761610662565b5b61076d848285610724565b509392505050565b600082601f83011261078a5761078961065d565b5b813561079a848260208601610733565b91505092915050565b6000602082840312156107b9576107b8610653565b5b600082013567ffffffffffffffff8111156107d7576107d6610658565b5b6107e384828501610775565b91505092915050565b600081519050919050565b600082825260208201905092915050565b60005b8381101561082657808201518184015260208101905061080b565b60008484015250505050565b600061083d826107ec565b61084781856107f7565b9350610857818560208601610808565b61086081610667565b840191505092915050565b60008115159050919050565b6108808161086b565b82525050565b600060e08201905081810360008301526108a0818a610832565b905081810360208301526108b48189610832565b905081810360408301526108c88188610832565b905081810360608301526108dc8187610832565b905081810360808301526108f08186610832565b905081810360a08301526109048185610832565b905061091360c0830184610877565b98975050505050505050565b60008060008060008060c0878903121561093c5761093b610653565b5b600087013567ffffffffffffffff81111561095a57610959610658565b5b61096689828a01610775565b965050602087013567ffffffffffffffff81111561098757610986610658565b5b61099389828a01610775565b955050604087013567ffffffffffffffff8111156109b4576109b3610658565b5b6109c089828a01610775565b945050606087013567ffffffffffffffff8111156109e1576109e0610658565b5b6109ed89828a01610775565b935050608087013567ffffffffffffffff811115610a0e57610a0d610658565b5b610a1a89828a01610775565b92505060a087013567ffffffffffffffff811115610a3b57610a3a610658565b5b610a4789828a01610775565b9150509295509295509295565b600081905092915050565b6000610a6a826107ec565b610a748185610a54565b9350610a84818560208601610808565b80840191505092915050565b6000610a9c8284610a5f565b915081905092915050565b7f4e487b7100000000000000000000000000000000000000000000000000000000600052602260045260246000fd5b60006002820490506001821680610aee57607f821691505b602082108103610b0157610b00610aa7565b5b50919050565b7f436572746966696361746520616c726561647920657869737473000000000000600082015250565b6000610b3d601a836107f7565b9150610b4882610b07565b602082019050919050565b60006020820190508181036000830152610b6c81610b30565b9050919050565b60008190508160005260206000209050919050565b60006020601f8301049050919050565b600082821b905092915050565b600060088302610bd57fffffffffffffffffffffffffffffffffffffffffffffffffffffffffffffffff82610b98565b610bdf8683610b98565b95508019841693508086168417925050509392505050565b6000819050919050565b6000819050919050565b6000610c26610c21610c1c84610bf7565b610c01565b610bf7565b9050919050565b6000819050919050565b610c4083610c0b565b610c54610c4c82610c2d565b848454610ba5565b825550505050565b600090565b610c69610c5c565b610c74818484610c37565b505050565b5b81811015610c9857610c8d600082610c61565b600181019050610c7a565b5050565b601f821115610cdd57610cae81610b73565b610cb784610b88565b81016020851015610cc6578190505b610cda610cd285610b88565b830182610c79565b50505b505050565b600082821c905092915050565b6000610d0060001984600802610ce2565b1980831691505092915050565b6000610d198383610cef565b9150826002028217905092915050565b610d32826107ec565b67ffffffffffffffff811115610d4b57610d4a610678565b5b610d558254610ad6565b610d60828285610c9c565b600060209050601f831160018114610d935760008415610d81578287015190505b610d8b8582610d0d565b865550610df3565b601f198416610da186610b73565b60005b82811015610dc957848901518255600182019150602085019450602081019050610da4565b86831015610de65784890151610de2601f891682610cef565b8355505b6001600288020188555050505b505050505050565b60006040820190508181036000830152610e158185610832565b90508181036020830152610e298184610832565b9050939250505056fea26469706673582212208ae747b1a55342930d3698908a05a3069bad9d8144d4b6a96dc447c6cf0e3c4b64736f6c63430008140033",
  "linkReferences": {},
  "deployedLinkReferences": {}
}